:100000000C9446000C9465000C9465000C946500FB
:100010000C9465000C9465000C9465000C946500CC
:100020000C9465000C9465000C9465000C946500BC
:100030000C9465000C9465000C9465000C946500AC
:100040000C9465000C9465000C9465000C9465009C
:100050000C9465000C9465000C9465000C9465008C
:100060000C9465000C9465000C9465000C9465007C
:100070000C9465000C9465000C9465000C9465006C
:100080000C9465000C9465000C94650011241FBE4F
:10009000CFEFD0E4DEBFCDBF11E0A0E0B1E0EEE7EE
:1000A000F2E000E00BBF02C007900D92AE30B10746
:1000B000D9F711E0AEE0B1E001C01D92A031B10767
:1000C000E1F70E9421010C943D010C940000CF93B4
:1000D000DF9300D01F92CDB7DEB789837B836A831D
:1000E00089818A3031F48A819B81BC018DE00E9434
:1000F000670080EC90E0FC018081882F90E08072A6
:1001000099270097B1F386EC90E02981FC012083C8
:1001100080E090E00F900F900F90DF91CF910895C5
:10012000CF93DF93CDB7DEB780910E0190910F0191
:1001300081309105E9F08130910540F082309105E0
:10014000B9F18330910509F453C073C080E290E0A7
:10015000FC018081843039F481E090E090930F01BC
:1001600080930E016BC010920F0110920E0166C0B9
:1001700080E290E0FC018081843039F481E090E0FD
:1001800090930F0180930E0112C080E290E0FC0179
:100190008081882339F482E090E090930F0180936E
:1001A0000E0105C010920F0110920E0147C046C00B
:1001B00080E290E0FC018081882339F482E090E0C5
:1001C00090930F0180930E0112C080E290E0FC0139
:1001D0008081823039F483E090E090930F01809326
:1001E0000E0105C010920F0110920E0127C026C00B
:1001F00080E290E0FC018081803849F410920F0188
:1002000010920E0185E290E0FC01108211C085E29F
:1002100090E0FC018081882331F485E290E021E0C8
:10022000FC01208305C085E290E0FC01108206C03D
:1002300005C010920F0110920E010000DF91CF91C6
:100240000895CF93DF93CDB7DEB781E290E0FC0154
:10025000108284E290E02FEFFC01208385E290E0A1
:10026000FC01108210920F0110920E0185E290E0C5
:0E027000FC0110820E949000FDCFF894FFCF99
:0E027E00000000020000000067000000000009
:00000001FF
