:100000000C9446000C9465000C9465000C946500FB
:100010000C9465000C9465000C9465000C946500CC
:100020000C9465000C9465000C9465000C946500BC
:100030000C9465000C9465000C9465000C946500AC
:100040000C9465000C9465000C9465000C9465009C
:100050000C9465000C9465000C9465000C9465008C
:100060000C9465000C9465000C9465000C9465007C
:100070000C9465000C9465000C9465000C9465006C
:100080000C9465000C9465000C94650011241FBE4F
:10009000CFEFD0E4DEBFCDBF11E0A0E0B1E0EAE8F1
:1000A000F2E000E00BBF02C007900D92AE30B10746
:1000B000D9F711E0AEE0B1E001C01D92A231B10765
:1000C000E1F70E9423010C9443010C940000CF93AC
:1000D000DF9300D01F92CDB7DEB789837B836A831D
:1000E00089818A3031F48A819B81BC018DE00E9434
:1000F000670080EC90E0FC018081882F90E08072A6
:1001000099270097B1F386EC90E02981FC012083C8
:1001100080E090E00F900F900F90DF91CF910895C5
:10012000CF93DF93CDB7DEB780911001909111018D
:100130008230910581F18330910530F4009761F0B0
:100140008130910581F077C08330910509F457C063
:1001500084309105C1F16FC081E090E0909311016E
:10016000809310016DC080910E01882351F481E0CD
:1001700090E0909311018093100181E080930F0132
:100180005FC082E090E0909311018093100182E0C3
:1001900080930F0155C080910E01813051F482E0AF
:1001A00090E0909311018093100182E080930F0101
:1001B00047C084E090E0909311018093100182E0A9
:1001C00080930F013DC080910E01882361F484E08B
:1001D00090E0909311018093100185E290E022E07D
:1001E000FC0120832DC083E090E090931101809367
:1001F000100185E290E021E0FC01208321C0809184
:100200000E01882361F481E090E0909311018093C6
:10021000100185E290E021E0FC01208311C083E021
:1002200090E0909311018093100185E290E021E02D
:10023000FC01208305C010921101109210010000F2
:10024000DF91CF910895CF93DF93CDB7DEB781E2F1
:1002500090E0FC01108284E290E02FEFFC0120830B
:1002600085E290E0FC01108210920F0110921101C2
:100270001092100185E290E020910F01FC01208393
:0A0280000E949000FDCFF894FFCF1C
:0E028A000000000200000000670000000000FD
:00000001FF
